S00C00006D61696E2E7372656373
S11300000C942A000C9447000C9447000C9447006D
S11300100C9447000C9447000C9447000C94470040
S11300200C9447000C9447000C9447000C94470030
S11300300C9447000C9447000C9447000C94470020
S11300400C9447000C9447000C9447000C94470010
S11300500C94470011241FBECFE5D8E0DEBFCDBF0E
S113006010E0A0E6B0E0E4EEF4E002C005900D92EA
S1130070A036B107D9F710E0A0E6B0E001C01D92A8
S1130080A036B107E1F70E94FA010C9470020C94B7
S11300900000413009F03EC08130A9F0813030F0D9
S11300A08230F1F0833009F078C027C02AB381E0B0
S11300B090E0AC0102C0440F551F6A95E2F7BA0103
S11300C0622B6ABB089527B381E090E0AC0102C0C3
S11300D0440F551F6A95E2F7BA01622B67BB089576
S11300E024B381E090E0AC0102C0440F551F6A952F
S11300F0E2F7BA01622B64BB089521B381E090E07A
S1130100AC0102C0440F551F6A95E2F7BA01622B95
S113011061BB0895442309F040C08130A9F08130C7
S113012028F08230F9F08330C1F52AC02AB381E087
S113013090E0AC0102C0440F551F6A95E2F7BA0182
S1130140609562236ABB089527B381E090E0AC0117
S113015002C0440F551F6A95E2F7BA016095622305
S113016067BB089524B381E090E0AC0102C0440F62
S1130170551F6A95E2F7BA016095622364BB08953E
S113018021B381E090E0AC0102C0440F551F6A9591
S1130190E2F7BA016095622361BB0895813049F0AA
S11301A0813028F0823039F0833041F406C06ABBD4
S11301B0089567BB089564BB089561BB08954130F9
S11301C009F03EC08130A9F0813030F08230F1F086
S11301D0833009F078C027C02BB381E090E0AC01F4
S11301E002C0440F551F6A95E2F7BA01622B6BBB3C
S11301F0089528B381E090E0AC0102C0440F551F7C
S11302006A95E2F7BA01622B68BB089525B381E0D1
S113021090E0AC0102C0440F551F6A95E2F7BA01A1
S1130220622B65BB089522B381E090E0AC0102C06B
S1130230440F551F6A95E2F7BA01622B62BB089519
S1130240442309F040C08130A9F0813028F0823085
S1130250F9F08330C1F52AC02BB381E090E0AC0102
S113026002C0440F551F6A95E2F7BA0160956223F4
S11302706BBB089528B381E090E0AC0102C0440F49
S1130280551F6A95E2F7BA016095622368BB089529
S113029025B381E090E0AC0102C0440F551F6A957C
S11302A0E2F7BA016095622365BB089522B381E049
S11302B090E0AC0102C0440F551F6A95E2F7BA0101
S11302C06095622362BB0895813049F0813028F043
S11302D0823039F0833041F406C06BBB089568BBAB
S11302E0089565BB089562BB0895813089F081301B
S11302F028F08230B9F0833049F51EC029B330E0CC
S1130300C90102C0959587956A95E2F781700895B1
S113031026B330E0C90102C0959587956A95E2F746
S11303208170089523B330E0C90102C09595879583
S11303306A95E2F78170089520B330E0C90102C0E4
S1130340959587956A95E2F7817008958FEF0895E2
S11303508BB360E041E00E94490008958BB360E0F4
S113036041E00E94DF0008958BB360E040E00E940A
S1130370DF0008959BB381E089278BBB08958BB37D
S113038061E041E00E94490008958BB361E041E0DF
S11303900E94DF0008958BB361E040E00E94DF001B
S11303A008959BB382E089278BBB08958BB362E0E9
S11303B041E00E94490008958BB362E041E00E944D
S11303C0DF0008958BB362E040E00E94DF000895EF
S11303D08BB363E041E00E94490008958BB363E06E
S11303E041E00E94DF0008958BB363E040E00E9487
S11303F0DF0008950E9449020E94A8010E94BF01E3
S11304000E94D6010E94E8010E946C028430D9F057
S1130410853038F4823089F0833090F48130A1F74C
S113042009C08630B1F0863088F08730A9F0883072
S113043059F715C00E94AE01E7CF0E94B401E4CF82
S11304400E94C501E1CF0E94CB01DECF0E94DC01F6
S1130450DBCF0E94E201D8CF0E94EE01D5CF0E94EB
S1130460F401D2CF81E064E041E00E94490081E0E0
S113047065E041E00E94490081E066E040E00E94BE
S1130480490081E067E041E00E94490083E58DB9BD
S1130490089581E064E040E00E94490081E065E065
S11304A040E00E94490081E066E041E00E9449008A
S11304B081E067E040E00E94490080E48DB908953E
S11304C0CF93C82F81E064E040E00E94DF00CFB901
S11304D0779BFECFCF910895779BFECF8FB1089580
S10704E0F894FFCFBA
S9030000FC
