:100000000C942A000C9447000C9447000C94470071
:100010000C9447000C9447000C9447000C94470044
:100020000C9447000C9447000C9447000C94470034
:100030000C9447000C9447000C9447000C94470024
:100040000C9447000C9447000C9447000C94470014
:100050000C94470011241FBECFE5D8E0DEBFCDBF12
:1000600010E0A0E6B0E0EAEBF8E002C005900D92E7
:10007000A43FB107D9F710E0A4EFB0E001C01D9292
:10008000A43FB107E1F70E9487020C945B040C9433
:100090000000413009F03EC08130A9F0813030F0DD
:1000A0008230F1F0833009F078C027C02AB381E0B4
:1000B00090E0AC0102C0440F551F6A95E2F7BA0107
:1000C000622B6ABB089527B381E090E0AC0102C0C7
:1000D000440F551F6A95E2F7BA01622B67BB08957A
:1000E00024B381E090E0AC0102C0440F551F6A9533
:1000F000E2F7BA01622B64BB089521B381E090E07E
:10010000AC0102C0440F551F6A95E2F7BA01622B99
:1001100061BB0895442309F040C08130A9F08130CB
:1001200028F08230F9F08330C1F52AC02AB381E08B
:1001300090E0AC0102C0440F551F6A95E2F7BA0186
:10014000609562236ABB089527B381E090E0AC011B
:1001500002C0440F551F6A95E2F7BA016095622309
:1001600067BB089524B381E090E0AC0102C0440F66
:10017000551F6A95E2F7BA016095622364BB089542
:1001800021B381E090E0AC0102C0440F551F6A9595
:10019000E2F7BA016095622361BB0895813049F0AE
:1001A000813028F0823039F0833041F406C06ABBD8
:1001B000089567BB089564BB089561BB08954130FD
:1001C00009F03EC08130A9F0813030F08230F1F08A
:1001D000833009F078C027C02BB381E090E0AC01F8
:1001E00002C0440F551F6A95E2F7BA01622B6BBB40
:1001F000089528B381E090E0AC0102C0440F551F80
:100200006A95E2F7BA01622B68BB089525B381E0D5
:1002100090E0AC0102C0440F551F6A95E2F7BA01A5
:10022000622B65BB089522B381E090E0AC0102C06F
:10023000440F551F6A95E2F7BA01622B62BB08951D
:10024000442309F040C08130A9F0813028F0823089
:10025000F9F08330C1F52AC02BB381E090E0AC0106
:1002600002C0440F551F6A95E2F7BA0160956223F8
:100270006BBB089528B381E090E0AC0102C0440F4D
:10028000551F6A95E2F7BA016095622368BB08952D
:1002900025B381E090E0AC0102C0440F551F6A9580
:1002A000E2F7BA016095622365BB089522B381E04D
:1002B00090E0AC0102C0440F551F6A95E2F7BA0105
:1002C0006095622362BB0895813049F0813028F047
:1002D000823039F0833041F406C06BBB089568BBAF
:1002E000089565BB089562BB0895813089F081301F
:1002F00028F08230B9F0833049F51EC029B330E0D0
:10030000C90102C0959587956A95E2F781700895B5
:1003100026B330E0C90102C0959587956A95E2F74A
:100320008170089523B330E0C90102C09595879587
:100330006A95E2F78170089520B330E0C90102C0E8
:10034000959587956A95E2F7817008958FEF0895E6
:10035000CF93C82F81E061E040E00E94DF0081E0A0
:1003600062E040E00E94DF008BB39C2F907F8F7093
:10037000892B8BBB81E063E041E00E94DF0089EFC5
:1003800090E00197F1F700C0000081E063E040E0F9
:100390000E94DF0081EE94E00197F1F700C00000B9
:1003A0008BB3C295C07F8F70C82BCBBB81E063E05D
:1003B00041E00E94DF0089EF90E00197F1F700C073
:1003C000000081E063E040E00E94DF0081EE94E005
:1003D0000197F1F700C00000CF91089581E061E03E
:1003E00041E00E94490081E062E041E00E94490052
:1003F00081E063E041E00E94490080E064E041E088
:100400000E94490080E065E041E00E94490080E0F0
:1004100066E041E00E94490080E067E041E00E9420
:10042000490087EA91E60197F1F700C0000082E0F9
:100430000E94A80188E20E94A8018CE00E94A80105
:1004400086E00E94A80181E00E94A8010895CF9350
:10045000C82F81E061E041E00E94DF0081E062E0BE
:1004600040E00E94DF008BB39C2F907F8F70892B20
:100470008BBB81E063E041E00E94DF0089EF90E008
:100480000197F1F700C0000081E063E040E00E94C6
:10049000DF0081EE94E00197F1F700C000008BB31C
:1004A000C295C07F8F70C82BCBBB81E063E041E079
:1004B0000E94DF0089EF90E00197F1F700C0000093
:1004C00081E063E040E00E94DF0081EE94E001976C
:1004D000F1F700C00000CF9108950F931F93CF93C1
:1004E0008C01FC018081882351F0C0E00E9427022A
:1004F000CF5FF801EC0FF11D80818823B9F7CF9110
:100500001F910F91089581E00E94A80108950E9413
:10051000EE010E940C040E944A0483EC99E00197CA
:10052000F1F700C0000080E80E94A80180E690E09A
:100530000E946D028FEF98E0ADE381509040A040A3
:10054000E1F700C000000E948302A3ECB9E011971C
:10055000F1F700C0000080E80E94A8018FE690E05B
:100560000E946D0280EC0E94A8018FE790E00E943B
:100570006D028FEF91E1AAE781509040A040E1F732
:1005800000C000000E948302A3ECB9E01197F1F7CC
:1005900000C00000CFE8D0E00FE910E00F2EFAED28
:1005A000AF2EF0E0BF2EF02D0F2EF2EE8F2EF0E0EA
:1005B0009F2EF02D0F2EF8ECEF2EF0E0FF2EF02DF9
:1005C0000F2EF1EDCF2EF0E0DF2EF02D0F2EF0EB01
:1005D0006F2EF0E07F2EF02D0F2EFCEB4F2EF0E073
:1005E0005F2EF02D80E80E94A801CE010E946D02CE
:1005F00080EC0E94A801C8010E946D020E9457046D
:10060000813319F0823371F783C00E94830283EC37
:1006100099E00197F1F700C0000080E80E94A8016E
:10062000C3010E946D0280EC0E94A801C2010E94D9
:100630006D020E945704813319F0823399F634C059
:100640000E948302A3ECB9E01197F1F700C000000B
:1006500080E80E94A801C7010E946D0280EC0E9400
:10066000A801C6010E946D020E945704813321F047
:10067000823309F0B7CF0CC00E94830283EC99E06B
:100680000197F1F700C0000081E00E943A04AACF70
:100690000E948302A3ECB9E01197F1F700C00000BB
:1006A00082E00E943A049ECF0E94830283EC99E08C
:1006B0000197F1F700C0000080E80E94A801C7017F
:1006C0000E946D0280EC0E94A801C6010E946D028A
:1006D0000E945704813321F0823309F083CF0CC08C
:1006E0000E948302A3ECB9E01197F1F700C000006B
:1006F00083E00E943A0476CF0E94830283EC99E063
:100700000197F1F700C0000084E00E943A046ACF2C
:100710000E948302A3ECB9E01197F1F700C000003A
:1007200080E80E94A801C5010E946D0280EC0E9431
:10073000A801C4010E946D020E945704813321F078
:10074000823309F04FCF34C00E94830283EC99E0DA
:100750000197F1F700C0000080E80E94A801C701DE
:100760000E946D0280EC0E94A801C6010E946D02E9
:100770000E945704813021F0823009F033CF0CC041
:100780000E948302A3ECB9E01197F1F700C00000CA
:1007900085E00E943A0426CF0E94830283EC99E010
:1007A0000197F1F700C0000086E00E943A041ACFDA
:1007B0000E948302A3ECB9E01197F1F700C000009A
:1007C00080E80E94A801C7010E946D0280EC0E948F
:1007D000A801C6010E946D020E945704813321F0D6
:1007E000823309F0FFCE0CC00E94830283EC99E0B3
:1007F0000197F1F700C0000087E00E943A04F2CEB2
:100800000E948302A3ECB9E01197F1F700C0000049
:1008100088E00E943A04E6CE81E064E041E00E9474
:10082000490081E065E041E00E94490081E066E026
:1008300040E00E94490081E067E041E00E944900F9
:1008400083E58DB9089581E064E040E00E944900AD
:1008500081E065E040E00E94490081E066E041E01F
:100860000E94490081E067E040E00E94490080E486
:100870008DB90895CF93C82F81E064E040E00E94D5
:10088000DF00CFB9779BFECFCF910895779BFECF46
:100890008FB10895539A549A86E880BD10BC87E6BC
:1008A00089B908959BB195FFFDCF8CB908955F9BE1
:0A08B000FECF8CB10895F894FFCF3D
:1008BA0020202057454C434F4D452E2020200043F1
:1008CA00484F4F53452046524F4D20544845004605
:1008DA004F4C4C4F57494E47204D454E55450031D8
:1008EA0029524F4F4D204C49474854532E2000322D
:1008FA0029484F4D4520444556494345532E20002B
:10090A003129524F4F4D2031202020003229524F99
:10091A004F4D2032202020003129204F4E20202008
:10092A00003229204F4646202000312954562020E3
:10093A002000322941495220434F4E444954494FDD
:04094A004E455200C4
:00000001FF
